:020000040800F2
:1000000000000220ED940008B9470008BB47000833
:10001000BD470008BF470008C147000800000000B6
:10002000000000000000000000000000217E000829
:10003000C347000800000000C17E0008AF79000837
:100040003D9500083D9500083D9500083D95000848
:100050003D9500083D9500083D9500083D95000838
:100060003D9500083D9500083D9500083D95000828
:10007000C54700083D950008D54700083D95000894
:100080003D9500083D9500083D9500083D95000808
:100090003D9500083D9500083D9500083D950008F8
:1000A0003D9500083D9500083D9500083D950008E8
:1000B0003D9500083D9500083D9500083D950008D8
:1000C0003D9500083D9500083D9500083D950008C8
:1000D0003D9500083D9500083D950008E54700085E
:1000E0003D9500083D9500083D9500083D950008A8
:1000F0003D9500083D9500083D9500083D95000898
:100100003D9500083D9500083D9500083D95000887
:100110003D9500083D950008F54700083D9500080D
:100120003D9500083D9500083D9500083D95000867
:100130003D9500083D9500083D9500083D95000857
:100140003D9500083D9500083D9500083D95000847
:100150003D9500083D9500083D9500083D95000837
:100160003D9500083D9500083D9500083D95000827
:100170003D9500083D9500083D95000800000000F1
:080180003D9500083D950008C3
:1001C0000348044B834202D0034B03B118477047E6
:1001D000281A0020281A0020000000000548064BBD
:1001E0001B1AD90F01EBA301491002D0034B03B135
:1001F00018477047281A0020281A00200000000025
:1002000010B5064C237843B9FFF7DAFF044B13B15E
:100210000448AFF300800123237010BD281A00208A
:1002200000000000DC7A010808B5044B1BB104494A
:100230000448AFF30080BDE80840CFE700000000AD
:100240002C1A0020DC7A010870B50F4B0F4DAB4221
:10025000A3EB050607D0B610002455F8043B013483
:100260009847A642F9D817F039FC094D094B5E1B97
:10027000AB424FEAA60606D0002455F8043B0134F1
:100280009847A642F9D870BD608F0108608F0108B9
:10029000608F01086C8F0108830730B547D0541E6A
:1002A000002A3ED0CAB2034601E0013C39D303F82C
:1002B000012B9D07F9D1032C2CD9CDB205EB0525D7
:1002C0000F2C05EB054535D9A4F1100222F00F0CD7
:1002D00003F1100EE6444FEA121C1A46C2E900551B
:1002E000C2E9025510327245F8D10CF1010214F046
:1002F0000C0F03EB021204F00F0C13D0ACF104034B
:1003000023F003030433134442F8045B9342FBD10C
:100310000CF003042CB1C9B21C4403F8011BA34226
:10032000FBD130BD64461346002CF4D1F9E70346F7
:100330001446C0E71A46A446E0E700BF014B186820
:10034000704700BF00000020844641EA000313F01C
:1003500003036DD1403A41D351F8043B40F8043BCC
:1003600051F8043B40F8043B51F8043B40F8043B8F
:1003700051F8043B40F8043B51F8043B40F8043B7F
:1003800051F8043B40F8043B51F8043B40F8043B6F
:1003900051F8043B40F8043B51F8043B40F8043B5F
:1003A00051F8043B40F8043B51F8043B40F8043B4F
:1003B00051F8043B40F8043B51F8043B40F8043B3F
:1003C00051F8043B40F8043B51F8043B40F8043B2F
:1003D00051F8043B40F8043B403ABDD2303211D3CF
:1003E00051F8043B40F8043B51F8043B40F8043B0F
:1003F00051F8043B40F8043B51F8043B40F8043BFF
:10040000103AEDD20C3205D351F8043B40F8043BCE
:10041000043AF9D2043208D0D2071CBF11F8013BCC
:1004200000F8013B01D30B8803806046704700BF92
:10043000082A13D38B078DD010F003038AD0C3F1A1
:100440000403D21ADB071CBF11F8013B00F8013B83
:1004500080D331F8023B20F8023B7BE7043AD9D342
:10046000013A11F8013B00F8013BF9D20B78037017
:100470004B7843708B7883706046704708B5064BA5
:10048000044613B1002101F0E1FA044B1B6803B1EB
:100490009847204607F096FF4D1A00087C1B002065
:1004A0000EB400B582B003AB816853F8042B0193FE
:1004B00000F060F802B05DF804EB03B0704700BFD5
:1004C0000FB400B5074983B004AB086853F8042B98
:1004D0008168019300F04EF803B05DF804EB04B0BE
:1004E000704700BF000000209368013B002B936021
:1004F00011DA10B49469A34209DB0A2907D0136802
:10050000581C1060197008465DF8044B70475DF880
:10051000044B00F073B91368581C1060197008463A
:10052000704700BF9BB1F8B5134406460F46541EF2
:100530005D1E01E0AC4208D014F8011F3A46304677
:10054000FFF7D2FF431CF5D1F8BD0020F8BD002015
:10055000704700BF936810B514461BB918460023B6
:10056000636010BD00F09AF90023A360002363606C
:1005700010BD00BF2DE9F04FA1B08B4691461C463F
:10058000049018B1036A002B00F01C81BBF80C30FA
:10059000180740F19580DBF81030002B00F09080B8
:1005A0000023CA460D9343F22003ADF839309AF880
:1005B0000030864E07940127002B79D0D14604E005
:1005C00019F8013F002B00F08580252BF8D1B9EBFD
:1005D0000A0840F0828099F80030002B68D0002390
:1005E0004FF0FF32CDE9092309F1010908930B937C
:1005F0008DF863301E9305E0089A07FA03F31A4357
:100600000892A1464C46052214F8011B304600F022
:100610004FFEA246831B0028EED1089BD90644BF9B
:1006200020228DF8632099F800101A0744BF2B226E
:100630008DF863202A2966D1079A116804320029AF
:100640000792C0F29A800B9199F801102E2970D070
:100650005F4C0322204600F02BFE38B1089B001BA4
:100660004022824013430AF1010A08931AF8011B41
:1006700058488DF83810062200F01AFE002800F0C5
:100680008280554B002B69D007AA0092534B0498E7
:100690005A4608A9AFF300800390039B013307D0AB
:1006A0000D9B039A13440D939AF80030002B85D1CB
:1006B000BBF80C305B060AD40D9821B0BDE8F08F72
:1006C0000498594600F044FE00283FF469AF4FF00B
:1006D000FF30F2E7B9EB0A08EAD00AF1FF35CDF8AE
:1006E0001490A946049D01E0A0453ED94C465A46C7
:1006F00019F8011F2846FFF7F7FE02340130A4EB7A
:100700000A04F1D1D4E7A1F13002092A88BFCA4610
:100710009CD80B9B00E00134217803EB830302EBB0
:100720004303A1F13002092AF5D92E290B93A246E1
:100730008ED19AF801102A292FD1079B9AF802101E
:100740001A6809920433002A0AF102000793B8BF1D
:100750004FF0FF338246B8BF099379E7079B073311
:1007600023F00703083307939AE70D99DDF81490F7
:10077000414499F800300D912FE7494243F00203BC
:100780000B91089360E707AA0092144B04985A460D
:1007900008A900F003FF03907FE7A1F130020023D6
:1007A000092A09930AF1010A3FF652AF1AF8011F0C
:1007B00003EB830302EB4303A1F13002092AF5D9CD
:1007C000099345E700F0D4FAE0E600BF987C010801
:1007D000A07C0108A47C0108000000002505000899
:1007E00010B4054C8446134620685DF8044B0A4655
:1007F0006146FFF7BFBE00BF00000020F8B50D4600
:100800001446064610B1036A002B37D0A389A269AB
:10081000A2601A0719D52369BBB122686169D31A8E
:10082000EDB299422F4620DD0133A1680139A16064
:10083000511C2160157062699A420DD0A389DB07B3
:1008400001D50A2D08D03846F8BD2146304600F0C3
:100850007FFD38B92369E0E72146304600F042FBCE
:100860000028F0D04FF0FF37EDE72146304600F08A
:1008700039FB0028F6D122680123D6E700F078FA88
:10088000C4E700BF10B4044C03460A4620685DF874
:10089000044B1946FFF7B2BF000000209368002BFD
:1008A00000F0F8802DE9F04FB1F90CC01CF0080FF2
:1008B00083B0904681460C4631D00B697BB31CF067
:1008C0000207D8F8006038D00027D4F828B0216A91
:1008D000DFF8C4A23D4655452B463A4628BF53464D
:1008E0004846C5B1D847002840F3CA80D8F8083038
:1008F0001B1A07442D1AC8F80830002B00F0B680E8
:1009000055452B46D4F828B0216A28BF53463A46AD
:100910004846002DE6D1D6E900750836DBE72146CA
:10092000484600F015FD002840F0AF80B4F90CC037
:10093000D8F800601CF00207C6D11CF0010A63D190
:100940002368A168574618468B46002F58D01CF4E0
:10095000007F00F0B580B9420A4600F2E1801CF445
:10096000906F2FD0216962695D1A02EB420202EB9F
:10097000D2726B1C52103B44934292BF93469B46EB
:100980001A461CF4806F00F0EA801146484600F0D9
:100990000FFB002800F0F9802A4621690090FFF73C
:1009A000D3FCA289009B22F4906242F08002A281D3
:1009B0005819ABEB0505C4F814B02361A56020609D
:1009C000BB463A465146009200F0D0FBA16823682E
:1009D000009AA1EB0B011A443D46A160226000275A
:1009E000D8F808305B1BAA44C8F80830002B3DD06B
:1009F0002368A168B4F90CC018468B46002FA6D115
:100A0000D6E900A708369EE73846BB463D46009724
:100A1000002D41D0002846D0009A2068A168D4E972
:100A20000473AA4228BF2A46B84204D901EB030A3C
:100A3000524500F38580934275DC216AA76A5A46C5
:100A40004846B847B0F1000A1ADD009BB3EB0A0331
:100A500000930FD00120D8F80830A3EB0A03D34449
:100A6000A5EB0A05C8F80830002BD1D1002003B04F
:100A7000BDE8F08F2146484600F034FA0028EAD05D
:100A8000B4F90C3043F04003A3814FF0FF3003B0C2
:100A9000BDE8F08F00207047756833460836002D9A
:100AA000FAD0D3F800B02A460A21584600F000FCDC
:100AB000002867D00130A0EB0B0300931A46ACE787
:100AC00022699A4214D36269BA4211D86FF0004386
:100AD000BB4228BF3B46A56A93FBF2F3216A02FBA7
:100AE00003F348465246A847051EC9DD7F1B77E73A
:100AF000B94228BF39460D4618460A46514600F00D
:100B000035FBA1682368491B2B44A16023600029A1
:100B1000ECD12146484600F0E5F90028E6D0AFE7E1
:100B2000BB463A464EE75946019200F01FFB019A38
:100B3000A3689B1AA360236813442360924684E74A
:100B40005946524600F012FB236853442360214665
:100B5000484600F0C7F900283FF477AF90E74846D1
:100B600000F058FC034600287FF422AF2169484674
:100B700000F09EFAB4F90C300C22C9F8002023F0E2
:100B800080037FE76A1C009247E70C22B4F90C301F
:100B9000C9F8002076E700BF00FCFF7F0020704707
:100BA000024A0349034800F061BB00BF5000002027
:100BB000E50E0008040000200C4B4168994210B576
:100BC000044601D000F08EF9A168094B994202D089
:100BD000204600F087F9E168064B994204D0204690
:100BE000BDE8104000F07EB910BD00BF441A0020DF
:100BF000AC1A0020141B0020002070472DE9F84398
:100C00002A4C2B49DFF8BC90DFF8BC80294FC4F890
:100C10003811002504230822294604F15C00264EE1
:100C2000E360C4E90055C4E90455A5606566A561A3
:100C3000FFF732FB214B63670822294604F1C40009
:100C4000C4E90849C4E90A87C4E91A55C4E91E552C
:100C50002567C4F8CC50C4F880502663FFF71CFB0E
:100C6000174BC4F8DC30294604F16803082204F568
:100C70009670C4F88830C4E92398C4E92576C4E99D
:100C80003455C4E93855C4F8D850C4F83451C4F8C0
:100C9000E850FFF701FB04F1D003C4E93D98C4E933
:100CA0003F76C4F8F030BDE8F88300BF441A002056
:100CB000A10B0008ED190008111A00080900010035
:100CC0001200020085190008AD190008F8B5254B7F
:100CD000D3F838310646002B3CD0234FD7E90134F6
:100CE000013B04D51DE05A1C04F1680419D0B4F985
:100CF0000C50013B002DF6D11C4BE360C4E90155BB
:100D0000C4E9045565662560A5610822294604F1F9
:100D10005C00FFF7C1FAC4E90D55C4E9125520463D
:100D2000F8BD3D680DB12F46D8E74FF4D671304677
:100D300000F03EF9044680B10423C0E900530C30B2
:100D40002946A0604FF4D0722546FFF7A5FA3C6013
:100D50002F46C3E7FFF752FFBFE70C23386033602D
:100D6000DDE700BF441A0020500000200100FFFF13
:100D7000036A03B17047044B044AD3F83831026266
:100D8000002BF7D13AE700BF441A0020B90B000846
:100D9000704700BF704700BF024A0349002000F0BF
:100DA00065BA00BF500000209D0B0008024A0349AD
:100DB000002000F05BBA00BF50000020F90B0008D3
:100DC000B1F90C302DE9F0411E070C4680463DD4A8
:100DD0004A68002A56DDE56A002D34D00022D8F892
:100DE0000060C8F8002013F48052216A57D1012313
:100DF0004046A847451C024666D0B4F90C30E56A67
:100E0000216A580705D56368D21A636B0BB1236C4E
:100E1000D21A00234046A847431C42D000236360F7
:100E200023692360A389DF0400D56065616BC8F87E
:100E3000006041B104F14403994202D0404600F001
:100E400037F9002363630020BDE8F0810E69002EAE
:100E5000F9D09B070D6808BF4B690E6018BF0023CF
:100E6000AD1B8B600BE02B463246216AA76A4046D9
:100E7000B847B0F1000CA5EB0C05664406DD002D6B
:100E8000F1DCE0E70A6C002AA5DCDCE7B4F90C3001
:100E900043F04003A3814FF0FF30BDE8F081626D65
:100EA000AFE7D8F80010B4F90C301D29F0D80C4A7F
:100EB000CA40D507ECD52269226000226260DA04BC
:100EC000B4D50029B1D0B1E7D8F80030002B94D0C8
:100ED0001D2B01D0162BD9D1C8F80060B3E700BF95
:100EE000010040200B69B3B110B5044682B008B1CF
:100EF000036A5BB1B1F90C3013B9002002B010BD28
:100F0000204602B0BDE81040FFF75ABF0191FFF73D
:100F10002FFF0199EEE70020704700BFB8B138B548
:100F20000D4A0369156804462BB10DB12B6A53B104
:100F3000B4F90C300BB9002038BD21462846BDE875
:100F40003840FFF73DBF2846FFF712FFF0E7034A9E
:100F50000349044800F08AB9000000205000002036
:100F6000E50E00080400002070B5104E33680546F9
:100F70000C46B3B12146284600F0F2FC431C0CD0CD
:100F8000C41C24F00304A04205D0211A284600F016
:100F9000E7FC013001D0204670BD4FF0FF34204601
:100FA00070BD194600F0DCFC3060E3E7801B0020D8
:100FB0002DE9F843CD1C25F0030508350C2D38BF6D
:100FC0000C25002D064618DBA94216D8DFF8DC8078
:100FD00000F026FCD8F80420A2B1144603E06368B0
:100FE00022467BB11C4623685B1BF8D40B2B1FD811
:100FF0009442636854D053600CE00C2333600020AB
:10100000BDE8F88329463046FFF7AEFF431C04468F
:1010100019D00560304600F005FC04F10B00231DDB
:1010200020F00700C21A1CBF1B1AA350BDE8F883AA
:1010300061199442256014BF5160C8F804106351CF
:1010400063684B60E6E7D8F804701FB33C467F68DE
:10105000002FFBD123683946304604EB030900F02A
:101060007FFC814516D12368ED1A29463046FFF7EB
:101070007BFF01300ED02368D8F804202B44236076
:10108000536883B1A34203D01A465B689C42FBD1EC
:101090000023B0E70C233360304600F0C3FBAEE71B
:1010A000C8F80430B6E7C8F80470B3E7801B002026
:1010B000002950D038B551F8043C0C1F002BB8BFA4
:1010C000E418054600F0ACFB274A13682BB1A34295
:1010D0000CD92168601883422CD0636028461460C4
:1010E000BDE8384000F09EBBA3420FD81A465B68AB
:1010F000002BF9D111685018844217D02CD36360AB
:1011000054602846BDE8384000F08CBB1168501888
:10111000A04214D020D8216860188342EFD118680B
:101120005B680844C4E900035460EAE723680B44A1
:101130001360E6E718685B6808442060CDE7206824
:101140000144501883421160DBD1D3E9000401440B
:10115000C2E90014D5E770470C232B602846BDE890
:10116000384000F05FBB00BF841B002088420ED9CE
:101170008B1883420BD900EB020C002A6ED062461A
:1011800013F801CD02F801CD9942F9D170470F2A29
:101190000FD8034602F1FF3C002A5FD00CF1010C8E
:1011A000013B8C4411F8012B03F8012F6145F9D163
:1011B000704740EA01039B0751D1A2F1100370B5BB
:1011C00001F1200C23F00F0501F1100E00F11004C5
:1011D000AC441B095EF8105C44F8105C5EF80C5CD3
:1011E00044F80C5C5EF8085C44F8085C5EF8045C4B
:1011F00044F8045C0EF1100EE64504F11004E9D148
:10120000013312F00C0F01EB031102F00F0400EB9D
:10121000031328D0043C24F003064FEA940C1E4428
:101220001C1F8E465EF8045B44F8045FB442F9D19B
:101230000CF1010402F0030203EB840301EB8401CF
:1012400002F1FF3C4AB10CF1010C013B8C4411F856
:10125000012B03F8012F6145F9D170BD704702F1F0
:10126000FF3C03469AE72246EAE700BF2DE9F84330
:101270000746884616464FF00009D6E90154013D5D
:1012800010D4A389012B08D9B4F90E3001332146BB
:10129000384602D0C04749EA0009013D6B1C04F101
:1012A0006804EED13668002EE7D14846BDE8F883E1
:1012B00001F0FF01102A2BDB10F0070F08D010F807
:1012C000013B013A8B422DD010F0070F42B3F6D10B
:1012D000F0B441EA012141EA014122F007047FF024
:1012E00000070023F0E80256083C85EA010586EA7B
:1012F000010685FA47F5A3FA87F586FA47F6A5FAB7
:1013000087F68EB9EED1F0BC01F0FF0102F00702C2
:1013100032B110F8013B013A83EA010313B1F8D16D
:101320000020704701387047002D06BF354603384E
:10133000073815F0010F07D1013015F4807F02BF87
:10134000013015F4C03F0130F0BC0138704700BFD8
:1013500038B52F4B1B6805460C4613B11A6A002A94
:101360004BD0B4F90C3018071CD5226922B313F006
:10137000010107D0616900204942A060A1613AB132
:10138000002038BD980758BF6169A160002AF7D1D5
:10139000190658BF1046F4D543F04003A3814FF01F
:1013A000FF3038BDD9062CD55A0712D4226943F034
:1013B0000803A381002ADAD103F42071B1F5007F7C
:1013C000D5D02146284600F02FFAB4F90C30226916
:1013D000CDE7616B51B104F14402914204D028463B
:1013E000FFF766FEB4F90C30002262632269002127
:1013F000C4E9002123F02403D9E71846FFF7B8FC1D
:10140000AFE7092243F040032A60A381C7E700BF8A
:10141000000000202DE9F041144641B30AB306460E
:101420000D4600F0F9FA8442074602D8B4EB500F9B
:1014300013D821463046FFF7BBFD804650B1BC4271
:101440002246294628BF3A46FEF77EFF2946304607
:10145000FFF72EFE4046BDE8F081A8464046BDE8B5
:10146000F081A046FFF724FE4046BDE8F081BDE8CC
:10147000F0411146FFF79CBD2DE9F84F92461F46FB
:101480000A698B68DDF828909A42B8BF1A46CAF8F4
:10149000002091F843300C46064613B10132CAF8D9
:1014A0000020226891065FD5DAF800300233CAF8CE
:1014B0000030226812F0060F11461DD1E1689942F2
:1014C000D8BF114618DD4FF0000804F1190B05E0F4
:1014D000E568DAF80030ED1A45450CDD01235A467F
:1014E00039463046C847013008F10108F0D14FF0C5
:1014F000FF30BDE8F88F216894F84330003B18BFF7
:1015000001238A060AD5E1185A1C302081F84300CD
:10151000224494F8451082F84310023304F1430248
:1015200039463046C8470130E1D02368DAF8005028
:10153000216903F00603042BD4E902201BD08A4260
:1015400020DD4FF00008521A90441A34002501E0C3
:10155000454517DA0123224639463046C84701304F
:1015600005F10105F4D1C2E712F0060F0DD0003BE2
:1015700018BF0123D2E7401B8A4220EAE078E2DC70
:101580000028E2DC0020BDE8F88FE168DAF80030DE
:101590009942D8BF114696DCAEE700BF2DE9F0476F
:1015A000174684B00A7E0C9D0C460646984601F10B
:1015B000430C002A35D0A2F15803D9B2202969D8AA
:1015C000202B67D8DFE813F0E600660066006600AF
:1015D0006600660066006600660066006600AC0095
:1015E00070006600660066006600700066006600B7
:1015F0006600660021008300C60066006600B60033
:101600006600830066006600EC002B682268616952
:10161000181D286010061B6802D4520600F1E080F5
:1016200019600023E1462361CDF800803B4603AA00
:1016300021463046FFF720FF013020D023694A467B
:1016400039463046C047013019D02368E068DDF8DC
:101650000C909B0718D5484516DD002504F1190AA2
:1016600004E0E068A0EB0903AB420DDD0123524624
:1016700039463046C047013005F10105F1D14FF040
:10168000FF3004B0BDE8F0874845B8BF484604B015
:10169000BDE8F08784F84220012004F142090023CC
:1016A000206184F84330BFE72A682368111D1806BB
:1016B000296002D4590600F195801068014600287F
:1016C0006268C0F2938054484FF00A0E15E020681B
:1016D0002B6810F0800F53F8041B02D1400648BF5E
:1016E00089B26F2A4C482B6014BF4FF00A0E4FF09E
:1016F000080E0023626884F84330002AA26051DBA0
:10170000236823F00403236000294BD1002A7BD1F6
:10171000E146BEF1080F56D0ACEB0903236183E725
:101720002B681A6804332B6004F1420984F84220C4
:101730000120B4E72B686268191D2960D3F8009076
:1017400000214846FFF7B4FD002863D0A0EB090054
:101750006060A4E7236843F02003236078222F48C9
:1017600084F845202A6813F0800F52F8041B03D137
:1017700013F0400F18BF89B22A60DA0744BF43F064
:101780002003236019B9236823F0200323604FF05E
:10179000100EAEE7582384F845301F482368E1E770
:1017A0002368DBE77546E146B1FBF5F305FB131A49
:1017B0000A46AA4210F80A1009F8011D1946F3D288
:1017C000BEF1080FA8D12368DD07A5D5626823699B
:1017D0009A42A1DC302309F8013C09F1FF399BE76B
:1017E00019801EE7B2F90010084668E72D20002A8C
:1017F000A26084F8430002DB23F0040323600A257F
:1018000005484942AE46CEE7037884F8423004F1F9
:1018100042097EE7606842E7AC7C0108C07C0108B1
:10182000704700BF704700BF70B5B1F90C300C466F
:10183000990796B007D504F147030122C4E90432A1
:10184000236016B070BDB4F90E100029054629DBDF
:101850006A4600F073F9002822DB4FF480612846C5
:10186000019EFFF7A5FB88B3A389206043F08003A6
:1018700006F47046A381B6F5005F4FF48063C4E9B7
:101880000403DED1B4F90E10284600F057F8002802
:10189000D7D0A38923F0030343F00103A381D0E74A
:1018A000B4F90C3013F0800F14BF40264FF480665B
:1018B00031462846FFF77CFB40B1A389206043F006
:1018C0008003C4E90406A38116B070BDB4F90C30DE
:1018D0009A05B6D423F0030304F1470243F0020350
:1018E0000121C4E90421A3812260AAE770B50C4656
:1018F000B1F90E10002996B015461E460FDB6A4658
:1019000000F01CF900280ADB019B03F47043A3F5E7
:101910000053B3FA83F34FF480625B0908E0A289B5
:1019200012F0800F4FF0000314BF40224FF480628A
:10193000002033602A6016B070BD00BF38B5074D77
:101940000022044608462A6006F068FD431C00D0C9
:1019500038BD2B68002BFBD0236038BD8C1B0020CA
:1019600038B5074D0022044608462A6006F0FCFC04
:10197000431C00D038BD2B68002BFBD0236038BD42
:101980008C1B002010B50C46B1F90E1000F0C0F809
:10199000002803DB636D0344636510BDA38923F452
:1019A0008053A38110BD00BF002070472DE9F04196
:1019B0000C46B1F90C101F46CB05054616460BD454
:1019C00021F48051A1813B46B4F90E1032462846DD
:1019D000BDE8F04100F0DEB8B4F90E100223002299
:1019E00000F0C2F8B4F90C10EAE700BF10B50C46DD
:1019F000B1F90E1000F0B8F8B4F90C30421C0EBF6B
:101A000023F4805343F480536065A38110BD00BF6D
:101A1000B1F90E1000F008B851F8043C181F002B63
:101A2000BCBF0B58C018704738B5074D002204469C
:101A300008462A6006F0EAFC431C00D038BD2B683B
:101A4000002BFBD0236038BD8C1B00202DE9F04F0C
:101A5000DFF8B890D9F8006083B0002E34D0884603
:101A600001907568D6F888706C1E2DD4013506EB90
:101A7000850507F1800BB8F1000F28D173682A683B
:101A8000013BA34216BF002374602B60BAB1D6F8A5
:101A900004A06FB3D7F800110123A3400B4227D055
:101AA000D7F8040157F8241003422BD1019890472E
:101AB0007368D9F80020534520D1B2421ED1013CB1
:101AC000631CA5F10405D6D103B0BDE8F08F57B172
:101AD0005BF824304345D1D0013C621CA5F10405DC
:101AE000F2D0002FF4D1013CEED3013CFBD2EBE766
:101AF00090477368D9F800205345DED0002AE3D020
:101B00001646AEE708469047D2E700BF881B002084
:101B100038B50C46084D8446114620461A46002327
:101B20002B60644606F054FC431C00D038BD2B6883
:101B3000002BFBD0236038BD8C1B002070B50C46F9
:101B4000084D03460026204611461C462E6006F02E
:101B500060FC431C00D070BD2B68002BFBD02360C1
:101B600070BD00BF8C1B002038B50C46084D844664
:101B7000114620461A4600232B60644606F050FCAE
:101B8000431C00D038BD2B68002BFBD0236038BD30
:101B90008C1B002038B50C46084D84461146204663
:101BA0001A4600232B60644606F022FC431C00D03A
:101BB00038BD2B68002BFBD0236038BD8C1B002068
:101BC00081F0004102E000BF83F0004330B54FEAEE
:101BD00041044FEA430594EA050F08BF90EA020F5B
:101BE0001FBF54EA000C55EA020C7FEA645C7FEAEE
:101BF000655C00F0E2804FEA5454D4EB5555B8BF11
:101C00006D420CDD2C4480EA020281EA030382EA81
:101C1000000083EA010180EA020281EA0303362D13
:101C200088BF30BD11F0004F4FEA01314FF4801CE6
:101C30004CEA113102D0404261EB410113F0004FF8
:101C40004FEA03334CEA133302D0524263EB4303AF
:101C500094EA050F00F0A780A4F10104D5F1200E4D
:101C60000DDB02FA0EFC22FA05F2801841F10001A8
:101C700003FA0EF2801843FA05F359410EE0A5F17C
:101C800020050EF1200E012A03FA0EFC28BF4CF0AD
:101C9000020C43FA05F3C01851EBE37101F0004563
:101CA00007D54FF0000EDCF1000C7EEB00006EEB70
:101CB0000101B1F5801F1BD3B1F5001F0CD34908FA
:101CC0005FEA30004FEA3C0C04F101044FEA445251
:101CD00012F5800F80F09A80BCF1004F08BF5FEAD8
:101CE000500C50F1000041EB045141EA050130BDB8
:101CF0005FEA4C0C404141EB0101013C28BFB1F5CA
:101D0000801FE9D291F0000F04BF01460020B1FA14
:101D100081F308BF2033A3F10B03B3F120020CDAE7
:101D20000C3208DD02F1140CC2F10C0201FA0CF0C5
:101D300021FA02F10CE002F11402D8BFC2F1200C2A
:101D400001FA02F120FA0CFCDCBF41EA0C019040E0
:101D5000E41AA2BF01EB0451294330BD6FEA040429
:101D60001F3C1CDA0C340EDC04F11404C4F1200214
:101D700020FA04F001FA02F340EA030021FA04F326
:101D800045EA030130BDC4F10C04C4F1200220FA7D
:101D900002F001FA04F340EA0300294630BD21FABB
:101DA00004F0294630BD94F0000F83F4801306BF81
:101DB00081F480110134013D4EE77FEA645C18BF75
:101DC0007FEA655C29D094EA050F08BF90EA020F0C
:101DD00005D054EA000C04BF1946104630BD91EA04
:101DE000030F1EBF0021002030BD5FEA545C05D107
:101DF0004000494128BF41F0004130BD14F5800446
:101E00003CBF01F5801130BD01F0004545F0FE41B9
:101E100041F470014FF0000030BD7FEA645C1ABFEE
:101E2000194610467FEA655C1CBF0B46024650EA25
:101E3000013406BF52EA033591EA030F41F4002151
:101E400030BD00BF90F0000F04BF0021704730B5D7
:101E50004FF4806404F132044FF000054FF00001AC
:101E600050E700BF90F0000F04BF0021704730B56D
:101E70004FF4806404F1320410F0004548BF404242
:101E80004FF000013EE700BF42004FEAE2014FEA97
:101E900031014FEA02701FBF12F07F4393F07F4F72
:101EA00081F06051704732F07F4208BF704793F075
:101EB0007F4F04BF41F40021704730B54FF4607488
:101EC00001F0004521F000411CE700BF50EA01028B
:101ED00008BF704730B54FF000050AE050EA010234
:101EE00008BF704730B511F0004502D5404261EBA4
:101EF00041014FF4806404F132045FEA915C3FF4E5
:101F0000D8AE4FF003025FEADC0C18BF03325FEA81
:101F1000DC0C18BF033202EBDC02C2F1200300FA32
:101F200003FC20FA02F001FA03FE40EA0E0021FA57
:101F300002F11444BDE600BF70B54FF0FF0C4CF445
:101F4000E06C1CEA11541DBF1CEA135594EA0C0FF7
:101F500095EA0C0F00F0DEF82C4481EA030621EA32
:101F60004C5123EA4C5350EA013518BF52EA03356D
:101F700041F4801143F4801338D0A0FB02CE4FF01F
:101F80000005E1FB02E506F00042E0FB03E54FF04F
:101F90000006E1FB03569CF0000F18BF4EF0010E47
:101FA000A4F1FF04B6F5007F64F5407404D25FEA43
:101FB0004E0E6D4146EB060642EAC62141EA5551F6
:101FC0004FEAC52040EA5E504FEACE2EB4F1FD0C38
:101FD00088BFBCF5E06F1ED8BEF1004F08BF5FEAB6
:101FE000500E50F1000041EB045170BD06F0004668
:101FF00046EA010140EA020081EA0301B4EB5C0415
:10200000C2BFD4EB0C0541EA045170BD41F480110C
:102010004FF0000E013C00F3AB8014F1360FDEBF31
:10202000002001F0004170BDC4F10004203C35DA0D
:102030000C341BDC04F11404C4F1200500FA05F390
:1020400020FA04F001FA05F240EA020001F0004231
:1020500021F0004110EBD37021FA04F642EB0601A7
:102060005EEA430E08BF20EAD37070BDC4F10C04D1
:10207000C4F1200500FA04F320FA05F001FA04F295
:1020800040EA020001F0004110EBD37041F1000181
:102090005EEA430E08BF20EAD37070BDC4F120058C
:1020A00000FA05F24EEA020E20FA04F301FA05F2F4
:1020B00043EA020321FA04F001F0004121FA04F29C
:1020C00020EA020000EBD3705EEA430E08BF20EA6C
:1020D000D37070BD94F0000F0FD101F000464000A6
:1020E00041EB010111F4801F08BF013CF7D041EA28
:1020F000060195F0000F18BF704703F0004652002C
:1021000043EB030313F4801F08BF013DF7D043EAFC
:102110000603704794EA0C0F0CEA135518BF95EAB2
:102120000C0F0CD050EA410618BF52EA4306D1D139
:1021300081EA030101F000414FF0000070BD50EA58
:10214000410606BF1046194652EA430619D094EAE2
:102150000C0F02D150EA013613D195EA0C0F05D1CC
:1021600052EA03361CBF104619460AD181EA030120
:1021700001F0004141F0FE4141F470014FF00000D8
:1021800070BD41F0FE4141F4780170BD70B54FF073
:10219000FF0C4CF4E06C1CEA11541DBF1CEA1355F3
:1021A00094EA0C0F95EA0C0F00F0A7F8A4EB0504D5
:1021B00081EA030E52EA03354FEA013100F08880CC
:1021C0004FEA03334FF0805545EA131343EA126395
:1021D0004FEA022245EA111545EA10654FEA00264A
:1021E0000EF000419D4208BF964244F1FD0404F503
:1021F000407402D25B084FEA3202B61A65EB03055F
:102200005B084FEA32024FF480104FF4002CB6EB1B
:10221000020E75EB030E22BFB61A754640EA0C009B
:102220005B084FEA3202B6EB020E75EB030E22BFDB
:10223000B61A754640EA5C005B084FEA3202B6EB1C
:10224000020E75EB030E22BFB61A754640EA9C00DB
:102250005B084FEA3202B6EB020E75EB030E22BFAB
:10226000B61A754640EADC0055EA060E18D04FEA69
:10227000051545EA16754FEA06164FEAC30343EA09
:1022800052734FEAC2025FEA1C1CC0D111F4801FD6
:102290000BD141EA00014FF000004FF0004CB6E7CF
:1022A00011F4801F04BF01430020B4F1FD0C88BF6E
:1022B000BCF5E06F3FF6AFAEB5EB030C04BFB6EB79
:1022C000020C5FEA500C50F1000041EB045170BD6C
:1022D0000EF0004E4EEA113114EB5C04C2BFD4EB99
:1022E0000C0541EA045170BD41F480114FF0000E1D
:1022F000013C90E645EA060E8DE60CEA135594EA99
:102300000C0F08BF95EA0C0F3FF43BAF94EA0C0F9B
:102310000AD150EA01347FF434AF95EA0C0F7FF410
:1023200025AF104619462CE795EA0C0F06D152EA64
:1023300003353FF4FDAE1046194622E750EA410648
:1023400018BF52EA43067FF4C5AE50EA41047FF459
:102350000DAF52EA43057FF4EBAE12E74FEA4102BC
:1023600012F5001215D211D56FF47873B3EB6252E7
:1023700012D94FEAC12343F0004343EA505311F00E
:10238000004F23FA02F018BF404270474FF00000A0
:10239000704750EA013005D111F0004008BF6FF0DE
:1023A000004070474FF00000704700BF4FEA410205
:1023B000B2F1E04324BFB3F5001CDCF1FE5C0DD9A3
:1023C00001F0004C4FEAC0024CEA5070B2F1004FED
:1023D00040EB830008BF20F00100704711F0804FF0
:1023E00021D113F13872BCBF01F00040704741F4B5
:1023F00080114FEA5252C2F11802C2F1200C10FAB9
:102400000CF320FA02F018BF40F001004FEAC1239C
:102410004FEAD32303FA0CFC40EA0C0023FA02F340
:102420004FEA4303CCE77FEA625307D150EA013316
:102430001EBF4FF0FE4040F44000704701F00040E6
:1024400040F0FE4040F40000704700BF7BB972B915
:102450000029BEBF00204FF0004106E008BF002861
:102460001CBF6FF000414FF0FF3000F0B5B9ADF187
:10247000080C6DE904CE002909DB002B1ADB00F003
:102480004DF8DDF804E0DDE9022304B07047404276
:1024900061EB4101002B1BDB00F040F8DDF804E0AC
:1024A000DDE9022304B0404261EB4101524263EB9B
:1024B00043037047524263EB430300F02FF8DDF80B
:1024C00004E0DDE9022304B0404261EB41017047C2
:1024D000524263EB430300F021F8DDF804E0DDE94C
:1024E000022304B0524263EB4303704753B94AB925
:1024F000002908BF00281CBF4FF0FF314FF0FF300C
:1025000000F06AB9ADF1080C6DE904CE00F006F8F0
:10251000DDF804E0DDE9022304B070472DE9F0475F
:10252000089D0E4604460F46002B4AD194468C4522
:10253000B2FA82F260D942B1C2F12003974020FA88
:1025400003F30CFA02FC1F4394404FEA1C4E1FFA9F
:102550008CF6B7FBFEF1230C0EFB117743EA074321
:1025600001FB06F098420AD91CEB030301F1FF3787
:1025700080F01581984240F21281023963441B1A9F
:10258000A4B2B3FBFEF00EFB103344EA034400FB9D
:1025900006F6A6420AD91CEB040400F1FF3380F0D2
:1025A0000081A64240F2FD806444023840EA0140C6
:1025B000A41B00211DB1D4400023C5E90043BDE8A0
:1025C000F0878B4205D90DB1C5E90001002108460D
:1025D000F5E7B3FA83F1002946D1B34202D3824230
:1025E00000F2F580841A66EB030201201746002DE5
:1025F000E5D0C5E90047E2E7002A40F09380A1EB6F
:102600000C034FEA1C471FFA8CFE0121B3FBF7F6BF
:1026100007FB1630230C43EA00430EFB06F09842FA
:1026200008D91CEB030306F1FF3802D2984200F2EE
:10263000D08046461B1AA4B2B3FBF7F007FB103359
:1026400044EA03440EFB00FEA64508D91CEB040433
:1026500000F1FF3302D2A64500F2B6801846A4EB83
:102660000E0440EA0640A5E7C1F120078B4022FA9C
:1026700007FC4CEA030C06FA01FE20FA07F426FADE
:1026800007F344EA0E0400FA01F84FEA1C404FEA4F
:102690001449B3FBF0FE1FFA8CF600FB1E3349EA27
:1026A00003430EFB06F9994502FA01F20BD91CEB24
:1026B00003030EF1FF3A80F08580994540F2828055
:1026C000AEF1020E6344A3EB0909A4B2B9FBF0F327
:1026D00000FB139944EA094403FB06F6A64208D915
:1026E0001CEB040403F1FF3068D2A64266D9023B1A
:1026F000644443EA0E40A41BA0FB02E6B4427346C6
:10270000B14652D34FD05DB1B8EB030264EB09047C
:1027100004FA07F722FA01F31F43CC40C5E900741D
:1027200000214CE7C2F1200120FA01F30CFA02FC6F
:1027300026FA01F1964033434FEA1C471FFA8CFEFC
:10274000B1FBF7F007FB1016190C41EA064100FB3C
:102750000EF68E4204FA02F408D91CEB010100F1D6
:10276000FF382DD28E422BD902386144891B9BB28F
:10277000B1FBF7F607FB161143EA014306FB0EF126
:10278000994208D91CEB030306F1FF3814D2994291
:1027900012D9023E63445B1A46EA004136E73946E5
:1027A000EDE6184602E7F045ADD2BEEB020366EB5C
:1027B0000C060138B146A6E74646ECE7034698E723
:1027C0004046D3E7D6467EE76444023847E70846EA
:1027D0000DE7023E63442DE7704700BF01292DE954
:1027E000F0415BD94FF00108C64600244FF0FF3599
:1027F000434608E0A3EB05081C464FF0010E04EB2E
:102800000E03994210D900EB050CC75C1CF80E6052
:10281000B742EFD332D04FF001082546C6464444B4
:1028200004EB0E039942EED80127C2F80080BE46A1
:1028300000244FF0FF363B4607E09F1B1C464FF03D
:10284000010E04EB0E03994210D900EB060C10F8B0
:1028500003801CF80EC0E045EFD817D001272646AC
:10286000BE463C4404EB0E039942EED80136681C88
:10287000864201D317603046BDE8F081C6450ABFE5
:1028800074440EF1010E4FF0010EB8E7BE450ABFC9
:1028900074440EF1010E4FF0010ED2E7012700261D
:1028A000E8E700BF2DE9F04F174687B005AA80463C
:1028B0008946384619461C46FFF790FF059B029350
:1028C00082460246F918384601F014FB00285FD111
:1028D00044F400630193029BE31A06460546A9EB04
:1028E00004010393CAF1010BA9421BD35645334699
:1028F00038BF53469C4223D9581EEA1838444244F4
:1029000002E001339C421BD012F801CB10F801EF1A
:10291000E645F6D09C4213D95D441D44A9424FF0D0
:102920000006E3D2019908EB090001F011FB814494
:10293000A9EB0401A942D9D2002007B0BDE8F08F6D
:1029400056450AF1FF336FD205EB0A02424407EB0A
:102950000A00009502E09E4211D0734610F801CDA6
:1029600012F8015DAC4503F1FF3EF4D0009D013348
:1029700001369E4207D8029B039E1D44B4E70136F0
:102980009E42009DF7D908EB050007B0BDE8F08F27
:10299000A4EB0A03534538BF534601330193059313
:1029A00044F400630025A9EB040100930AF1FF360B
:1029B000CAF1010BA94216D3544520D905EB0A02EE
:1029C0004244B819534602E001339C4217D012F832
:1029D00001CB10F801EFE645F6D09C420FD95D44DB
:1029E0001D44A942E8D2009908EB090001F0B0FAB1
:1029F0008144A9EB0401A9429ED35445DED8BAF123
:102A0000000FC0D005EB0A00404407EB0A0201E0CA
:102A1000BB42B8D012F801ED10F801CDE6451346DF
:102A2000F6D0019B1D44C5E75346A1E72DE9F04FC1
:102A30009346ADF21C4D05AA80468A465846194673
:102A40001C46FFF7CBFE134681460DF2144243F8B5
:102A5000044F9342FBD16CB1601E58440BF1FF321E
:102A600006AD12F8011FA31A013B5B44824245F8F0
:102A70002130F6D1059B01934A460BEB03015846E2
:102A800001F038FA002878D144F40063074605467F
:102A9000AAEB040E0293661EAE4511D308EB050C9B
:102AA00006AA1CF8063052F82330C3B11FB1019AB0
:102AB0009A4288BFA31A1D44AE454FF00007EDD2DD
:102AC00008EB0A00029901F043FA8244AAEB040ED3
:102AD000AE45E3D200200DF21C4DBDE8F08F4F450E
:102AE0003B4638BF4B469E4218D9591EEA185944F6
:102AF0004244009502E001339E420ED012F8010BD1
:102B000011F8015F8542F6D09E42009D06D9C9F1B9
:102B100001022A44D5180027BEE7009D4F4509F160
:102B2000FF3380F0818005EB090242440BEB090181
:102B30000095CDF80C9002E09F4213D04B4611F85F
:102B4000015D12F8010D854203F1FF39F4D0009DBB
:102B5000DDF80C90013301379F4209D8019B1D44D9
:102B6000E71A99E701379F42009DDDF80C90F5D9EF
:102B700060460DF21C4DBDE8F08FA4EB09034B45F8
:102B800038BF4B4601330193059344F4006300259D
:102B9000AAEB040E0093661EAE4509D308EB0500B0
:102BA00006AA835D52F823306BB11D44AE45F5D2C1
:102BB00008EB0A00009901F0CBF98244AAEB040E5D
:102BC000AE45EBD286E7B14517D209F1FF3105EBEF
:102BD0000902594442444B4602E00133B3420CD04F
:102BE00012F8017B11F801CFBC45F6D09E4204D902
:102BF000C9F101022A44D518CEE7B9F1000F3FF41C
:102C00006AAF05EB090141440BEB090202E05B45A9
:102C10003FF461AF12F801CD11F8017DBC451346B8
:102C2000F5D0019B1D44C1E74B4694E72DE9F041E7
:102C30000D46097890B00446002954D06A78002ADD
:102C400000F08280AB78002B51D0E8782E68002805
:102C500000F081802B79002B56D0284600F0D0FD63
:102C6000064640F40071204601F072F986425AD8B7
:102C7000FE2E00F28880801B27184022711C6846B7
:102C8000FDF70AFB7EB16A1E5FFA86FC901912F806
:102C9000013F03F03F0340336B44A91A6144904263
:102CA00003F8401CF3D1013CA35D03F03F03403324
:102CB0006B4413F8403C1C44A74203D238E0444420
:102CC000A74235D314F806C00CF03F0C0CF14003BA
:102CD0000DEB030C3246294620461CF8408C01F0CF
:102CE00009F90028EBD1204610B0BDE8F08100784A
:102CF00042EA0142B8B140EA03439A42214614F83D
:102D0000010FF7D14C1EEEE7227862B131BA01E033
:102D10008B421ED042EA0323204614F8012F002ADA
:102D2000F6D18B4215D00024204610B0BDE8F081CA
:102D3000BB5DB819002BF6D04FF4006101F008F923
:102D40000744A742AFD2EEE710B0BDE8F04100F073
:102D5000BBB8C41EC7E7120442EA0162217842EA06
:102D600003230029DFD0024601E00029DBD041EA3D
:102D70000200B3EB002F25464FEA002214F8011F92
:102D8000F3D1AC1EAFE7014633462A46204610B0C9
:102D9000BDE8F0414AE600BF38B5124B1D682A6B0A
:102DA00004461AB10023C2E9044338BD182000F0DC
:102DB000B3FD0246286378B101200021C2E9040175
:102DC000094B0A480A499160C2E900030B23938129
:102DD0000023C2E9044338BD064B0748462100F0F2
:102DE000DBF800BF0000002034126DE60E33CDABDF
:102DF000ECDE05004C860108648601081C4B10B50A
:102E00001C68226B8AB113691A4954691A4803FB7A
:102E100001F100FB0411A3FB0030013341EB000181
:102E2000C2E9043121F0004010BD182000F074FD0B
:102E30000246206388B1114C114B0E481149916034
:102E40009FED097BC2E900430B2393810E4B0146A2
:102E500082ED047BC2E9043110BD0C4B0C485221B9
:102E600000F09AF8AFF300800100000000000000BD
:102E7000000000202DF451582D7F954C0E33CDAB22
:102E800034126DE6ECDE05002E7F954C4C86010871
:102E90006486010810B4044C03460A4620685DF8B5
:102EA000044B194600F09EBD0000002000B5054B04
:102EB00083B0014601AA186800F094FD03B05DF8E4
:102EC00004FB00BF0000002011F0FF01034600F0EA
:102ED000030239D08ABB026810B501EB012E0EEB5C
:102EE0000E4E8EEA0204A2F1013323EA0203A4F19A
:102EF000013222EA0402134313F0803F0FD150F84D
:102F0000044F84EA0E0CA4F10133ACF1013223EA40
:102F1000040322EA0C02134313F0803FEFD003783E
:102F200023B936E010F8013F002B32D09942F9D195
:102F300010BD8A4228D09A0729D01A781846013342
:102F4000002AF6D110467047CAB90268A2F10133CF
:102F500023EA020313F0803F08D150F8042FA2F1B6
:102F6000013323EA020313F0803FF6D003785BB10C
:102F700010F8013F002BFBD17047990705D0184688
:102F800013F8012B002AF8D170471846DDE71846E0
:102F9000A1E7184610BD00BF00B50B4C25681446CC
:102FA000EE681A4685B003460D464CB107490095B8
:102FB000CDE901143046064900F000FD00F0A6FB03
:102FC00004490C46F3E700BF00000020908601088A
:102FD000A0860108A485010808B513460022FFF762
:102FE000DBFF00BF10B51C4C002924689AB02DDB14
:102FF000009004904FF40270ADF80C004FF0000008
:10300000199013D001394FF6FF7002910591ADF878
:103010000E006946204600F09DF9421C01DA8B2320
:103020002360009B00221A701AB010BD4FF6FF708B
:1030300002910591ADF80E006946204600F08AF92C
:10304000431C01DA8B2323601AB010BD8B2323604D
:103050004FF0FF30F8E700BF0000002030B5144605
:10306000002C9BB005462EDB1A464FF40273ADF8D8
:103070000C304FF0000300910491199313D04FF6D8
:10308000FF73013CADF80E3069461E9B0294059417
:1030900000F060F9421C01DA8B232B60009B0022B8
:1030A0001A701BB030BD4FF6FF73ADF80E30694695
:1030B0001E9B0294059400F04DF9431C01DA8B230A
:1030C0002B601BB030BD8B2303604FF0FF30F8E75F
:1030D00080EA0102844612F0030F4FD111F0030F72
:1030E00032D14DF8044D11F0040F51F8043B0BD0D0
:1030F000A3F101329A4312F0803F04BF4CF8043B25
:1031000051F8043B16D100BF51F8044BA3F1013232
:103110009A4312F0803FA4F101320BD14CF8043BEA
:10312000A24312F0803F04BF51F8043B4CF8044B1B
:10313000EAD023460CF8013B13F0FF0F4FEA33238C
:10314000F8D15DF8044B704711F0010F06D011F86B
:10315000012B0CF8012B002A08BF704711F0020F59
:10316000BFD031F8022B12F0FF0F16BF2CF8022B44
:103170008CF8002012F47F4FB3D1704711F8012B67
:103180000CF8012B002AF9D1704700BF2DE9F04758
:103190008F681D46AF420B680C46164636D8B1F90B
:1031A0000CC01CF4906F0ED13D46184631462A469D
:1031B000FDF7DCFFA368DF1B2368A7602B4400201A
:1031C0002360BDE8F0874A69096902EB42025F1A91
:1031D00002EBD2726B1C52103B44934292BF914659
:1031E00099461A461CF4806F804611D01146FDF7AF
:1031F000DFFE824600B321693A46FDF7A5F8A389B0
:1032000023F4906343F08003A38105E02F46CCE7CD
:10321000FEF700F9824658B10AEB0703A9EB07074E
:10322000A760C4F810A0C4F8149023602F46BCE730
:1032300021694046FDF73CFFA3890C2243F040037F
:10324000C8F800204FF0FF30A381BAE72DE9F04F16
:103250009368176883B09246002B74D04FF0000B30
:103260008B680A6881460C465D4645E0B4F90C302F
:1032700013F4906F2CD0D4E90401161A01EB41022B
:1032800002EBD272711C52102944914292BF9046B7
:1032900088460A465B0539D511464846FDF788FE43
:1032A000019000283DD032462169FDF74DF8A289F2
:1032B000019B22F4906242F08002A2819819A8EB4F
:1032C0000606A660C4F8148023612060A8462E4636
:1032D00032465946FDF74AFFDAF80810A36822681B
:1032E000A3EB08033244491BA3602260CAF808100C
:1032F00049B3D7E900B5083798461046002DF8D0F5
:103300009D421E46B2D2A8462E46E1E701464846F7
:10331000FEF780F803460028D0D121694846FDF722
:10332000C7FEA3890C2243F04003C9F800204FF0E8
:10333000FF30A38100220023CAF80820CAF8043015
:1033400003B0BDE8F08F00200023CAF8043003B0BA
:10335000BDE8F08F2DE9F04F1C468B891D069DB00E
:1033600088468146934603D50B69002B00F0F18017
:103370000023099343F22003ADF829309BF8003075
:103380007D4D03940126002B73D0DA4603E01AF832
:10339000013F002B75D0252BF9D1BAEB0B0473D16B
:1033A0009AF80020002A64D000234FF0FF32CDE9C4
:1033B00005230AF1010A049307938DF853301A93F9
:1033C00005E0049A06FA03F31A430492A24654460F
:1033D000052214F8011B2846FDF76AFFA346431B8C
:1033E0000028EED1049BD80644BF20228DF853203C
:1033F00019079AF8001044BF2B228DF853202A2970
:1034000050D1039A11680432002903927CDB0791A2
:103410009AF801102E295BD0584C03222046FDF764
:1034200047FF38B1049B001B4022824013430BF13D
:10343000010B04931BF8011B51488DF8281006223C
:10344000FDF736FF002865D04E4B002B55D003AA60
:1034500000924D4B424604A94846AFF30080074610
:103460007A1C06D0099B3B4409939BF80030002B43
:103470008BD1B8F80C305B067AD409981DB0BDE842
:10348000F08FBAEB0B04F4D023465A464146484627
:10349000FFF77CFE0130ECD0099B9AF80020234412
:1034A00009937FE7A1F13002092A88BFD346B1D83A
:1034B000079B00E00134217803EB830302EB430315
:1034C000A1F13002092AF5D92E290793A346A3D1E9
:1034D0009BF801102A2927D1039B9BF802101A6838
:1034E00005920433002A0BF102000393B8BF4FF09A
:1034F000FF338346B8BF05938EE7039B073323F062
:10350000070308330393ADE7494243F002030791F1
:1035100004937DE703AA00921B4B424604A9484648
:10352000FEF73CF807469BE7A1F130020023092A89
:1035300005930BF1010B3FF66FAF1BF8011F03EB77
:10354000830302EB4303A1F13002092AF5D9059365
:1035500062E74021FDF72CFDC8F80000C8F8100014
:1035600018B14023C8F8143002E70C23C9F8003022
:103570004FF0FF3082E700BF987C0108A07C010873
:10358000A47C0108000000008D3100082DE9F047FF
:10359000074649480E46354616F801EB10F80EC0AE
:1035A0001CF0080CF7D1BEF12D0F5AD0BEF12B0F35
:1035B00003BF96F800E06446AE1C64464BB9BEF10A
:1035C000300F5CD00A23DFF8F4804FF0050A9946EB
:1035D0000AE0102B4AD04FF0FF38B8FBF3F803FB9A
:1035E00008FA6FEA0A0A99460025284605E02CD019
:1035F00009FB00C0012516F801EBAEF1300CBCF15F
:10360000090F06D9AEF1410CBCF1190F0BD8AEF180
:10361000370C634510DDB5F1FF3FECD04045E6D9EE
:103620004FF0FF35E7E7AEF1610CBCF1190F03D89D
:10363000AEF1570C6345EEDC6B1C0BD004B140427D
:103640000AB165B91160BDE8F087D445D0DD4FF00F
:10365000FF35D0E722233B602846002AF3D0711EB5
:10366000F0E796F800E00124AE1CA7E7BEF1300FAA
:1036700011D04FF00F0A6FF070489946B4E73378D5
:1036800003F0DF03582B0BD008234FF0070A6FF02D
:1036900060489946A8E7307800F0DF005828E8D164
:1036A0004FF0100996F801E04FF00F0A02366FF064
:1036B00070484B4698E700BF157B01089999991906
:1036C00064E700BF10B4044C8446134620685DF8DC
:1036D000044B0A46614659E70000002010B4044C30
:1036E0008446134620685DF8044B0A4661464DE760
:1036F0000000002010B4044C03460A4620685DF820
:10370000044B194600F0E8B80000002008B5062078
:1037100000F0C8FC012004F055FE00BF2DE9F04781
:10372000089C90460E4602FB03F7814610B1036ADF
:10373000002B36D0A3891B0726D5236923B34FB3AB
:1037400006F1FF3A002507E023685A1C226083F83F
:1037500000C00135AF4220D0A3681AF801CF013B69
:10376000002BA360F0DAA669B342224661464846C0
:1037700002DBBCF10A0FE7D1FDF740F80130E8D1D8
:10378000B5FBF8F0BDE8F08721464846FDF7E0FDBF
:103790000028D4D00020BDE8F087B7FBF8F0BDE8E2
:1037A000F087FDF7E5FAC5E710B5064C82B0844610
:1037B0002068009313460A466146FFF7AFFF02B048
:1037C00010BD00BF0000002000000000000000004D
:1037D00000000000000000000000000000000000E9
:1037E00000000000000000000000000000000000D9
:1037F00000000000000000000000000000000000C9
:1038000030B490F800F020F007016FF0000C10F0D9
:10381000070491F820F040F048804FF000046FF06A
:103820000700D1E9002391F840F000F1080082FA86
:103830004CF2A4FA8CF283FA4CF3A2FA8CF34BBB51
:10384000D1E9022382FA4CF200F10800A4FA8CF2CA
:1038500083FA4CF3A2FA8CF3E3B9D1E9042382FA98
:103860004CF200F10800A4FA8CF283FA4CF3A2FAAD
:103870008CF37BB9D1E9062301F1200182FA4CF2E5
:1038800000F10800A4FA8CF283FA4CF3A2FA8CF34C
:10389000002BC6D0002A04BF04301A4612BAB2FA6E
:1038A00082F200EBD20030BC7047D1E9002304F073
:1038B0000305C4F100004FEAC50514F0040F91F8A8
:1038C00040F00CFA05F562EA05021CBF63EA050345
:1038D00062464FF00004AAE770B5A1FB025454B948
:1038E0002946FDF765FB064618B12A462146FCF736
:1038F000D3FC304670BD0C2202600026F9E700BF01
:1039000010B4044C03460A4620685DF8044B19467F
:10391000FDF780BD00000020024B01461868FDF74E
:1039200047BB00BF00000020024B01461868FDF7AE
:10393000BFBB00BF0000002040EA01039B0710B599
:1039400001D1032A17D8844601F1FF3E07E01EF893
:10395000011F03F8011B541E29B19C4622466346F1
:10396000002AF4D110BD9444002CFBD003F8011BB5
:103970006345FBD110BD8E468446DEF80040A4F1BD
:10398000013323EA040313F0803F71460EF1040E65
:10399000DAD1043A032A4CF8044BEED87146D3E747
:1039A0000CB400B583B004AB53F8042B0193FCF7BF
:1039B000E1FD03B05DF804EB02B070470EB410B542
:1039C00083B005AB064C53F8042B019301462068E5
:1039D000FCF7D0FD03B0BDE8104003B0704700BF56
:1039E000000000202DE9F047DFF8749007460E46EE
:1039F000904600F0BFFAD9F800504DB133781C461C
:103A00006BB1344602E014F8013F3BB13D2BFAD1D3
:103A1000384600F0B1FA0020BDE8F087A41B286802
:103A20000028F5D02246314600F024F828B928684D
:103A3000035D3D2B00EB040A04D055F8040F002869
:103A4000F0D1E5E7D9F80030EB1A9B103846C8F8FA
:103A5000003000F091FA0AF10100BDE8F08700BFE4
:103A60006C00002000B583B001AAFFF7BBFF03B0D4
:103A70005DF804FB002A3ED030B584460446084376
:103A800080070B462ED1032A07D82BE0043A25D015
:103A90001EF0803F22D1032A22D92068194653F80C
:103AA000045BA0F1013EA842A4462EEA000E04F1F8
:103AB0000404EBD09CF800000C7884421DD1E6464B
:103AC00068B11EF8010F11F8014FA2EB0E03A042DE
:103AD00003F1FF3311D11CEB0303F1D1002030BD02
:103AE000A44619469CF800000C78A04205D1012A92
:103AF000F4D0E646E4E710467047001B30BD00BF37
:103B000002780B78012A28BF9A4240F0D8806DE9EC
:103B1000044540EA0104CDE902676FF0000C4FEA6A
:103B200044721AB380EA010414F0070F6BD100F05D
:103B3000070420F0070004F0030521F007014FEA15
:103B4000C505F0E8042314F0040FF1E804670CFA4B
:103B500005F462EA040266EA04060BD063EA040391
:103B6000624667EA0407664604E000BFF0E8042303
:103B7000F1E8046782FA4CF582EA0604A4FA8CF4B0
:103B80006CBB83FA4CF583EA0705A5FA8CF595B969
:103B900050E9022351E9026782FA4CF582EA0604F1
:103BA000A4FA8CF483FA4CF583EA0705A5FA8CF5A0
:103BB0002543DBD09CB92DBAB5FA85F424F007046F
:103BC00027FA04F1DDE9026723FA04F303F0FF00AA
:103BD00001F0FF01FDE80445A0EB0100704724BAA5
:103BE000B4FA84F424F0070426FA04F1DDE902674C
:103BF00022FA04F202F0FF0001F0FF01FDE80445A3
:103C0000A0EB0100704714F0030F3CD110F0030447
:103C100028D150F8082B51F8083B82FA4CF582EA7B
:103C20000305A5FA8CF55DB950F8042C51F8043C55
:103C300082FA4CF582EA0305A5FA8CF5002DE8D04E
:103C40002DBAB5FA85F424F0070423FA04F122FA18
:103C500004F202F0FF0001F0FF01FDE80445A0EBD3
:103C6000010070474FEAC40420F0030050F8082B0D
:103C700021F0030151F8083B0CFA04F462EA040253
:103C800063EA0403C9E710F003041DD0A1EB0401AB
:103C900020F00300E40750F8042B06D012D28B78F2
:103CA0005FFAA2F4E41A06D12BB1CB785FFAB2F432
:103CB000E41A00D133B920465DF8104B7047A2EBEF
:103CC0000300704701F1040150F8042BCC0721F0E8
:103CD000030151F8043B48D824D222F07F4482FAF1
:103CE0004CF594EA1325A5FA8CF50AD165B951F87B
:103CF000043B84EA0204B4EB036F0ED150F8042BAA
:103D0000EBE74FEA132355E035F07F454DD10878B6
:103D1000FDE80445C0F1000070474FEA126203F06D
:103D2000FF0347E002EA1C4482FA4CF594EA13458B
:103D3000A5FA8CF50AD165B951F8043B84EA02046E
:103D4000B4EB034F0CD150F8042BEBE74FEA1343CD
:103D500030E015EA1C4528D10B884FEA124229E0D1
:103D60004FEA124203EA1C4324E002F0FF0482FA05
:103D70004CF594EA1365A5FA8CF50AD165B951F8AA
:103D8000043B84EA0204B4EB032F09D150F8042B5E
:103D9000EBE74FEA13630DE015F0FF0F05D10B6859
:103DA0004FEA122223F07F4304E04FF00000FDE8C9
:103DB0000445704712BA1BBA82FA4CF482EA030433
:103DC000A4FA8CF5B5FA85F402FA04F203FA04F3C6
:103DD0004FEA1260FDE80445A0EB1360704700BF96
:103DE00008B410B5002A9DB0044636DB4FF40273C8
:103DF000ADF814304FF000031B930291069120ABF5
:103E000017D0013A4FF6FF7104920792ADF81610E1
:103E10001F9A019302A9FFF79DFA421C01DA8B2336
:103E20002360029B00221A701DB0BDE8104001B053
:103E300070474FF6FF7104920792ADF816101F9A63
:103E4000019302A9FFF786FA431C01DA8B23236052
:103E50001DB0BDE8104001B070478B2303604FF0E8
:103E6000FF30F5E70CB410B5214B00291C689CB05D
:103E700038DB4FF000034FF402721B93ADF81420AF
:103E8000029006901FAB18D001394FF6FF720491D3
:103E90000791ADF8162002A91E9A01932046FFF75C
:103EA00059FA421C01DA8B232360029B00221A700C
:103EB0001CB0BDE8104002B070474FF6FF7204918D
:103EC0000791ADF8162002A91E9A01932046FFF72C
:103ED00041FA431C01DA8B2323601CB0BDE810407B
:103EE00002B070478B2323604FF0FF30F5E700BF2F
:103EF00000000020032A30B415D941EA0004A407C9
:103F000084460B4604D0541E0FE0043A032A08D915
:103F10001946604653F8044B5CF8045BA542F4D0A4
:103F2000F1E760461946541E7AB1431E0139021961
:103F300001E09A4209D013F8010F11F801CF604552
:103F4000F7D0A0EB0C0030BC7047002030BC7047AD
:103F500071B1034600EB010C01E0634506D01A463F
:103F6000013311780029F8D1101A7047181A7047D8
:103F700008467047704700BF704700BF38B5C46B34
:103F80000CB1002038BD80210546FDF711F802462E
:103F9000E86330B1031F7C3243F8044F9342FBD1F6
:103FA000EFE74FF0FF3038BD30B51F2983B005462D
:103FB00008D8C36B0C4653B153F8240043F82420AF
:103FC00003B030BD162303604FF0FF30F8E78021C7
:103FD0000192FCF7EDFF019AE86303460028F3D055
:103FE000011F00F17C05002041F8040FA942FBD11C
:103FF000E2E700BF1F2938B505461ED8C26B0C4644
:104000006AB152F8213053B1012B06D0591C10D09F
:10401000002142F8241020469847002038BD284649
:1040200000F0F2F8224601462846BDE8384000F08C
:10403000D5B816230360012038BD162303604FF066
:10404000FF3038BD1F292AD838B5C36B0C4605464A
:10405000A3B153F8242003EB84034AB1511C0BD0C5
:10406000012A07D0002520461D609047284638BD0C
:10407000012038BD032038BD022038BD8021FCF767
:1040800097FF0346E86338B1021F00217C3042F8F5
:10409000041F8242FBD1DCE74FF0FF3038BD4FF008
:1040A000FF30704738B5134B1F281D681DD8EA6BC9
:1040B000044662B152F820304BB1012B05D0591C97
:1040C0000FD0002142F820109847002038BD284624
:1040D00000F09AF8224601462846BDE8384000F034
:1040E0007DB816232B60012038BD16232B604FF0BE
:1040F000FF3038BD00000020114B1F2870B51E682E
:1041000008D8F36B04460D464BB153F8240043F82E
:10411000245070BD162333604FF0FF3070BD8021F6
:104120003046FCF745FF0346F0630028F4D0021F39
:1041300000217C3042F8041F8242FBD1E5E700BF3A
:104140000000002038B50B4B1D68EC6B0CB1002053
:1041500038BD80212846FCF72BFFE86338B1031FE8
:1041600000F17C0243F8044F9342FBD1EFE74FF09C
:10417000FF3038BD0000002038B5174B1F281D68E0
:1041800026D80446E86BA0B150F8243000EB840038
:104190004BB15A1C0BD0012B07D0002505602046DF
:1041A0009847284638BD012038BD032038BD02207D
:1041B00038BD80212846FCF7FBFEE86340B1031FB1
:1041C00000F17C01002243F8042F8B42FBD1DBE796
:1041D0004FF0FF3038BD00BF0000002070B50C4626
:1041E000084D03460026204611461C462E6004F06A
:1041F000E1F8431C00D070BD2B68002BFBD023607E
:1042000070BD00BF8C1B002004F0D2B808B5026856
:10421000034B9A4200D008BD01F01CFCFBE700BF35
:104220000010004072B6FEE700B595B030220021C4
:1042300008A8FCF731F80023039304930593069331
:10424000079301931F4A116C41F080511164126C65
:1042500002F080520192019A02931B4A116841F4C4
:1042600080411160126802F480420292029A022296
:10427000089201210B9110210C910E920F930823AB
:104280001093A823119312920423139308A800F00B
:10429000BDFC98B90F2303930223049300230593D5
:1042A0004FF4A05306934FF480530793052103A8BE
:1042B00000F0FCFE20B915B05DF804FBFFF7B2FF7B
:1042C000FFF7B0FF003802400070004008B501F071
:1042D000A7FBFFF7A9FF00F013F800F0ADF900F01D
:1042E000CDF904F09FF8054803F000FF03F06CFBE4
:1042F00000F092F903F07AFBFEE700BF709800200F
:1043000030B58BB000240594069407940894099462
:104310000094234B1A6B42F004021A631A6B02F0EA
:1043200004020092009A01941A6B42F080021A6310
:104330001A6B02F080020192019A02941A6B42F009
:1043400002021A631A6B02F002020292029A0394AA
:104350001A6B42F008021A631A6B02F00802039209
:10436000039A04941A6B42F001021A631B6B03F068
:1043700001030493049B0B4D22464FF480512846C1
:1043800001F07EF84FF480530593012306930794C0
:10439000089405A9284600F07DFF0BB030BD00BF92
:1043A000003802400000024008B5D0E90001FDF7E6
:1043B000FDFF07EE900AF5EEC07AF1EE10FA05DC8B
:1043C000F5EEC07AF1EE10FA07D408BD01224FF4E1
:1043D0008051054801F054F8F7E700224FF480516E
:1043E000014801F04DF8F0E7000002402DE9F041EE
:1043F0008EB0394B0193394B0093394B394A3A49C6
:1044000001200AF06FFC09A80AF006F8374B09935F
:10441000374B0A93374B0B93374B0C9309A80AF091
:1044200017F8002853D0354E02A80AF003F8B64614
:104430000DF1080CBCE80F00AEE80F00DCF800300E
:10444000CEF800302E4C334600221146204607F0AD
:1044500015FB2C4D23462C4A2C49284607F026FCF8
:104460000CF068FC02462A4B29462A4807F0E0FC7B
:1044700005F066F80246284F284B2946384607F0D3
:104480000BFDDFF8B880264B0093264A0023214617
:10449000404607F035FD244D33460222214628468A
:1044A00007F072F84146284607F00EF90023009302
:1044B0001E4B1F4A3946284607F0D2F81D4A0023F2
:1044C000194807F075F90A2003F00AFBF6E7F32113
:1044D0001948FBF7F5FFA6E7759400083794000824
:1044E0002994000811940008F44D0020AD920008B2
:1044F000CD920008ED9200082D9300089C1B00202F
:10450000B01B0020941B0020A4850108407C0108FA
:104510004C7C0108F01D0020A81C0020587C0108DC
:10452000F945000880B14F01E81B0020A9430008AD
:10453000781C002080969800187C0108901B0020B1
:1045400038B503F007FF0BF047FE0546FDF7C6FC44
:1045500027A3D3E90023FDF7EFFCFDF7FFFE204C76
:1045600020604FF47A7303FB105565601D4B04F116
:10457000080207CA06F07AFC1B4DB5F90000FDF7EA
:1045800071FCC4E93801B5F90200FDF76BFCC4E920
:104590003A01B5F90400FDF765FCC4E93C01B5F941
:1045A0002000FDF75FFCC4E92001B5F92200FDF70A
:1045B00059FCC4E92201B5F92400FDF753FCC4E914
:1045C000240100220023C4E90623C4E90823C4E926
:1045D0000A230022054BC4E90E2338BDAFF3008047
:1045E000B01C0020647C0108D89700200000F0BFB8
:1045F000FCA9F1D24D62503F40B108B5FFF7A0FFD2
:1046000000220349034808F03FFA08BD704700BF85
:10461000B01C0020F01D002008B5044A0021044809
:1046200003F000FA034B186008BD00BFD0860108F4
:10463000ED430008304D002010B582B000240194F5
:104640000D4B1A6B42F400121A631B6B03F4001338
:104650000193019B224605210C2001F0CDF90C208D
:1046600001F0DAF9224605210E2001F0C5F90E20ED
:1046700001F0D2F902B010BD0038024008B50A4876
:104680000A4B03600A4B436000238360C3600361ED
:104690000C2242618361C36101F0F8FA00B908BDE0
:1046A000FFF7C0FDFBE700BFF44D002000480040CD
:1046B00040420F0030B589B0002303930493059363
:1046C000069307930268364B9A4201D009B030BD79
:1046D00004460025019503F5F8331A6C42F4802254
:1046E0001A641A6C02F480220192019A02951A6BE4
:1046F00042F008021A631B6B03F008030293029B4B
:104700004FF4407303930223049303230693072378
:10471000079303A9234800F0BDFD2348234B036002
:104720004FF0006343608560C5604FF480630361B0
:10473000456185614FF48073C3614FF44033036278
:10474000456200F01FFF28BB174BE3639C631848CA
:10475000184B03604FF000634360402383600023E5
:10476000C3604FF48062026143618361C3614FF4AF
:1047700040320262436200F005FF70B90C4BA36344
:104780009C6300220521272001F036F9272001F043
:1047900043F99BE7FFF746FDD6E7FFF743FDEDE75B
:1047A00000480040000C0240944D00202860024068
:1047B000344D002058600240FEE7FEE7FEE7FEE7CA
:1047C000FEE7704708B5024800F0D4FF08BD00BFFF
:1047D000944D002008B5024800F0CCFF08BD00BF92
:1047E000344D002008B5024801F0EEFB08BD00BFC3
:1047F000F44D002008B5024800F0C2F808BD00BF23
:104800003C4E002000B583B0002200920D4B596C45
:1048100041F480415964596C01F480410091009940
:104820000192196C41F0805119641B6C03F08053A4
:104830000193019B0F216FF0010001F0DDF803B03F
:104840005DF804FB0038024030B589B0044600230F
:104850000193214B1A6C42F010021A641B6C03F096
:1048600010030193019B02A903A800F0F5FC069B2D
:10487000CBB900F0D1FC0346184AA2FB03239B0CE2
:10488000013B1748174A026040F2E732C2604360BA
:10489000002303618360836100F08AF9054630B12B
:1048A000284609B030BD00F0B7FC4300E4E70C48EF
:1048B00000F01EF805460028F2D1362001F0ACF8D1
:1048C0000F2C01D90125EBE700222146362001F00B
:1048D00093F8054B1C60E3E70038024083DE1B437E
:1048E0003C4E002000100040600000207047000097
:1048F00090F83D30DBB2012B37D1022380F83D30F8
:104900000268D36843F00103D3600368194A9342F5
:1049100020D0B3F1804F1DD0A2F57C42934219D034
:1049200002F58062934215D002F58062934211D065
:1049300002F5784293420DD002F57052934209D0AD
:10494000A2F59432934205D01A6842F001021A602F
:10495000002070479A6802F00702062A07D01A68FA
:1049600042F001021A6000207047012070470020C9
:10497000704700BF000001407047704770477047A4
:1049800070B504460368DE681D6915F0020F10D08B
:1049900016F0020F0DD06FF002021A6101230377A7
:1049A00003689B6913F0030F5ED0FFF7E6FF002357
:1049B000237715F0040F12D016F0040F0FD02368E0
:1049C0006FF004021A610223237723689B6913F4B2
:1049D000407F4FD02046FFF7D0FF0023237715F00C
:1049E000080F12D016F0080F0FD023686FF00802DE
:1049F0001A61042323772368DB6913F0030F40D087
:104A00002046FFF7BAFF0023237715F0100F12D0CE
:104A100016F0100F0FD023686FF010021A610823F0
:104A200023772368DB6913F4407F31D02046FFF7FA
:104A3000A4FF0023237715F0010F02D016F0010F19
:104A40002DD115F0800F02D016F0800F2FD115F068
:104A5000400F02D016F0400F31D115F0200F02D0D8
:104A600016F0200F33D170BDFFF786FF2046FFF709
:104A700085FF9CE72046FFF77FFF2046FFF77EFF7C
:104A8000ABE72046FFF778FF2046FFF777FFBAE74E
:104A90002046FFF771FF2046FFF770FFC9E7236844
:104AA0006FF001021A612046FFF7B0FBC9E72368E7
:104AB0006FF080021A61204600F0A7F8C7E723686C
:104AC0006FF040021A612046FFF759FFC5E72368DF
:104AD0006FF020021A61204600F096F8C3E700004C
:104AE0000368324A904212D0B0F1804F0FD0A2F545
:104AF0007C4290420BD002F58062904207D002F5D2
:104B00008062904203D002F57842904203D123F0B4
:104B100070034A681343254A90422AD0B0F1804F6F
:104B200027D0A2F57C42904223D002F580629042C9
:104B30001FD002F5806290421BD002F5784290426D
:104B400017D002F57052904213D002F58062904265
:104B50000FD002F5806290420BD0A2F598329042BD
:104B600007D002F58062904203D002F58062904245
:104B700003D123F44073CA68134323F080034A69C6
:104B800013438A68C2620A688262084A904203D06C
:104B900002F58062904201D10A690263026842F024
:104BA000040202600122426103607047000001407C
:104BB00040B310B5044690F83D30F3B1022384F8B9
:104BC0003D30214651F8040BFFF78AFF012384F89A
:104BD000463084F83E3084F83F3084F8403084F822
:104BE000413084F8423084F8433084F8443084F80B
:104BF000453084F83D30002010BD80F83C30FFF790
:104C000075FEDBE70120704770477047002800F011
:104C1000E08170B582B00446036813F0010F3BD009
:104C20009F4B9B6803F00C03042B2CD09C4B9B6880
:104C300003F00C03082B21D06368B3F5803F4FD0FD
:104C4000B3F5A02F52D0964B1A6822F480321A6026
:104C50001A6822F480221A606368002B50D000F09A
:104C600005FF05468E4B1B6813F4003F14D100F07E
:104C7000FDFE401B6428F5D90320B1E1884B5B6839
:104C800013F4800FD8D0864B1B6813F4003F03D079
:104C90006368002B00F09F81236813F0020F54D04B
:104CA0007F4B9B6813F00C0F3ED07D4B9B6803F04D
:104CB0000C03082B33D0E368002B68D0794B01221A
:104CC0001A6000F0D3FE0546754B1B6813F0020F07
:104CD00054D100F0CBFE401B0228F5D903207FE120
:104CE0006F4A136843F480331360B5E76C4B1A685E
:104CF00042F480221A601A6842F480321A60ABE7EC
:104D000000F0B4FE0546664B1B6813F4003FC3D0A9
:104D100000F0ACFE401B6428F5D9032060E1604B35
:104D20005B6813F4800FC6D15D4B1B6813F0020F54
:104D300003D0E368012B40F05081594A136823F0F7
:104D4000F803216943EAC1031360236813F0080FD5
:104D500042D063696BB3534B0122C3F8802E00F03D
:104D600085FE05464E4B5B6F13F0020F34D100F009
:104D70007DFE401B0228F5D9032031E1484A136823
:104D800023F0F803216943EAC1031360DDE7454BD3
:104D900000221A6000F06AFE0546414B1B6813F0C2
:104DA000020FD2D000F062FE401B0228F5D903208A
:104DB00016E13C4B0022C3F8802E00F057FE05465A
:104DC000374B5B6F13F0020F06D000F04FFE401B15
:104DD0000228F5D9032003E1236813F0040F77D0EC
:104DE0002F4B1B6C13F0805F33D1002301932C4BAE
:104DF0001A6C42F080521A641B6C03F080530193CA
:104E0000019B0125284B1B6813F4807F23D0A368E6
:104E1000012B34D0052B38D0214B1A6F22F0010220
:104E20001A671A6F22F004021A67A368002B3DD09C
:104E300000F01CFE06461A4B1B6F13F0020F46D102
:104E400000F014FE801B41F288339842F3D903200E
:104E5000C6E00025D6E7144A136843F48073136054
:104E600000F004FE0646104B1B6813F4807FCED181
:104E700000F0FCFD801B0228F5D90320B0E0084AB1
:104E8000136F43F001031367CFE7054B1A6F42F02E
:104E900004021A671A6F42F001021A67C5E700BFE1
:104EA00000380240000047420070004000F0DEFD84
:104EB0000646524B1B6F13F0020F08D000F0D6FDD0
:104EC000801B41F288339842F3D9032088E0EDB982
:104ED000A369002B00F08380484A926802F00C021C
:104EE000082A51D0022B17D0454B00221A6600F039
:104EF000BDFD0446414B1B6813F0007F42D000F01B
:104F0000B5FD001B0228F5D9032069E03B4A136C6C
:104F100023F080531364DBE7394B00221A6600F05C
:104F2000A5FD0546354B1B6813F0007F06D000F049
:104F30009DFD401B0228F5D9032051E0E369226A58
:104F40001343626A43EA8213A26A5208013A43EAAF
:104F50000243E26A43EA0263284A5360284B012273
:104F60001A6600F083FD0446244B1B6813F0007F93
:104F700006D100F07BFD001B0228F5D903202FE0AD
:104F800000202DE000202BE0012B2BD01B4B5B6879
:104F900003F48001E269914226D103F03F02216AC5
:104FA0008A4223D1616A47F6C0721A40B2EB811F70
:104FB0001ED103F44031A26A5208013AB1EB024F0C
:104FC00018D103F07063E26AB3EB026F14D10020D2
:104FD00006E001207047012002E0012000E00020EF
:104FE00002B070BD0120FBE70120F9E70120F7E7DF
:104FF0000120F5E70120F3E70120F1E70038024046
:105000000000474208B5264B9B6803F00C03042BB5
:1050100041D0082B41D1224B5A6802F03F025B6815
:1050200013F4800F12D01E4B5968C1F388111D482C
:105030000023A1FB0001FDF759FA194B5B68C3F38C
:10504000014301335B00B0FBF3F008BD144B58681B
:10505000C0F388104FEA401CBCEB000C6EEB0E0E48
:105060004FEA8E1343EA9C634FEA8C11B1EB0C01BB
:1050700063EB0E03DB0043EA5173C90011EB000C34
:1050800043F10003990200234FEA8C2041EA9C512E
:10509000FDF72CFAD1E70348D7E70348D5E700BF6F
:1050A0000038024040787D010024F400002800F020
:1050B0009B8070B50D4604464F4B1B6803F00703F9
:1050C0008B4208D2CBB24C4A1370136803F007032B
:1050D0008B4240F08B80236813F0020F17D013F03F
:1050E000040F04D0454A936843F4E0539360236867
:1050F00013F0080F04D0414A936843F4604393606F
:105100003E4A936823F0F003A1680B439360236841
:1051100013F0010F32D06368012B21D09A1E012AAF
:1051200025D9364A126812F0020F61D033498A68D5
:1051300022F0030213438B6000F098FC06462F4BCD
:105140009B6803F00C036268B3EB820F16D000F08B
:105150008DFC801B41F288339842F0D9032042E055
:10516000264A126812F4003FE0D101203BE0234AB6
:10517000126812F0007FD9D1012034E01E4B1B6869
:1051800003F00703AB4207D9EAB21B4B1A701B6846
:1051900003F00703AB422DD1236813F0040F06D0B0
:1051A000164A936823F4E053E1680B439360236845
:1051B00013F0080F07D0114A936823F46043216964
:1051C00043EAC1039360FFF71DFF0C4B9B68C3F3D9
:1051D00003130B4AD35CD8400A4B18600A4B18687B
:1051E000FFF732FB002070BD012070470120FAE775
:1051F0000120F8E70120F6E7003C024000380240B9
:10520000048701086400002060000020014B18683A
:10521000704700BF6400002008B5FFF7F7FF044B9C
:105220009B68C3F38223034AD35CD84008BD00BF08
:1052300000380240FC86010808B5FFF7E7FF044B81
:105240009B68C3F34233034AD35CD84008BD00BF18
:1052500000380240FC8601080F2303600B4B9A685C
:1052600002F0030242609A6802F0F00282609A68DB
:1052700002F4E052C2609B68DB0803F4E053036170
:10528000034B1B6803F007030B60704700380240B4
:10529000003C024000230F2B00F2E98070B582B081
:1052A00065E085684FEA430E032404FA0EF425EA0C
:1052B0000405CC6804FA0EF42C438460446824EAA4
:1052C00002044A68C2F300129A40224342605CE042
:1052D000DC08083450F8242003F00705AD004FF037
:1052E0000F0E0EFA05FE22EA0E0E0A69AA4042EAE5
:1052F0000E0240F824205CE0072200E0002202FABF
:105300000EF22A4302345A4D45F82420594A946833
:105310006FEA0C0224EA0C054E6816F4801F01D0D7
:105320004CEA0405534CA560E46802EA04054E68A3
:1053300016F4001F01D04CEA04054E4CE560646889
:1053400002EA04054E6816F4003F01D04CEA040559
:10535000484C6560246822404D6815F4803F01D0B8
:105360004CEA0402434C226001330F2B7DD801220A
:105370009A400C6804EA020C32EA0404F4D14C6846
:1053800004F00304013C012C8BD94A6802F00302AB
:10539000032A09D0C4685D000322AA4024EA02045B
:1053A0008A68AA402243C2604A6802F00302022AC5
:1053B0008ED004684FEA430E032202FA0EF224EA6A
:1053C00002044A6802F0030202FA0EF2224302606B
:1053D0004A6812F4403FC7D000220192264A546C1A
:1053E00044F480445464526C02F480420192019A65
:1053F0009C08A51C1E4A52F8255003F0030E4FEAE4
:105400008E0E0F2202FA0EF225EA02051B4A904286
:105410003FF474AF02F5806290421AD002F58062C8
:10542000904218D002F58062904216D002F5806258
:10543000904214D002F58062904212D002F5806250
:10544000904210D002F5806290423FF455AF08229E
:1054500055E7012253E7022251E703224FE70422D6
:105460004DE705224BE7062249E702B070BD7047C1
:1054700000380140003C014000380240000002407A
:105480000AB18161704709048161704730B40568D1
:105490002C6824F480242C60046863608368402BAB
:1054A00005D0036899600368DA6030BC7047036810
:1054B0009A600368D960F8E710B40368D9B210396C
:1054C0000A4AA2FB01421209094CA25CC2655F298B
:1054D00007D96FF3090304338365806D5DF8044BCE
:1054E00070476FF309038365F7E700BFABAAAAAA69
:1054F000F4860108836A826992B9012B0AD0022BD3
:1055000002D00BB100207047C36A13F0807F28D10E
:1055100000207047C36AB3F1C07F24D000207047D9
:10552000B2F5005F09D0022B25D9032B25D1C36A20
:1055300013F0807F23D100207047032B03D8DFE8CE
:1055400003F01404140A00207047C36A13F0807F2C
:105550000DD100207047C36AB3F1C07F09D000208D
:1055600070470120704701207047012070470120DB
:1055700070470120704701207047002070470120CC
:105580007047000070B5044600F070FA002C5BD044
:105590000546022384F83530002384F8343022682D
:1055A000136823F00103136023681A6812F0010FD7
:1055B0000AD000F05BFA431B052BF5D92023636565
:1055C000032084F8350070BD1A68204911406268D4
:1055D000A0680243E0680243206902436069024315
:1055E000A0690243E0690243206A02430A43616AF8
:1055F00004291ED01A602668756925F00705636ABC
:105600001D43042B07D1A36A1D43E36A1BB1204647
:10561000FFF770FF90B975612046FFF74DFFE26D0F
:105620003F239340836000206065012384F8353078
:10563000C9E7E16A206B01430A43DBE74023636566
:10564000012084F83500BEE70120BCE73F8010F060
:1056500038B50446856D90F8340001282BD0012020
:1056600084F8340094F83500C0B2012804D0002337
:1056700084F83430022038BD022084F83500002040
:1056800060652046FFF702FFE26D3F239340AB6069
:105690002268136843F016031360236C23B1226859
:1056A000136843F0080313602268136843F0010392
:1056B00013600020DFE70220DDE770B50446866D49
:1056C00000F0D4F994F83530DBB2022B06D08023F9
:1056D0006365002384F83430012070BD05462268DC
:1056E000136823F0160313602268536923F08003C4
:1056F0005361236CE3B12268136823F0080313603D
:105700002268136823F00103136023681B6813F0F9
:10571000010F11D000F0AAF9431B052BF5D9202366
:105720006365032084F83500002384F83430D4E71F
:10573000A36C002BDFD1E3E7E26D3F239340B3601E
:10574000012384F83530002084F83400C5E790F850
:105750003530DBB2022B03D0802343650120704734
:10576000052380F835300268136823F001031360C5
:1057700000207047F0B583B0044600230193724BBC
:105780001D68724BA3FB0535AD0A876D3E68C26D7F
:1057900008239340334210D003681A6812F0040FB4
:1057A0000BD01A6822F004021A60C26D08239340DD
:1057B000BB60436D43F001034365E26D01239340F9
:1057C000334209D02268526912F0800F04D0BB60C6
:1057D000636D43F002036365E26D0423934033423B
:1057E00009D02268126812F0020F04D0BB60636D0A
:1057F00043F004036365E26D10239340334224D0E9
:105800002268126812F0080F1FD0BB6023681A6864
:1058100012F4802F0DD01B6813F4002F04D1236CD9
:105820009BB12046984710E0A36C73B1204698477F
:105830000BE01A6812F4807F03D11A6822F0080284
:105840001A60236C0BB120469847E26D20239340E9
:10585000334255D02268126812F0100F50D0BB604E
:1058600094F83530DBB2052B0ED023681A6812F499
:10587000802F33D01B6813F4002F2AD1636C002BC8
:105880003ED0204698473BE02268136823F0160379
:1058900013602268536923F080035361236CA3B122
:1058A0002268136823F008031360E26D3F239340DE
:1058B000BB60012384F83530002384F83430236D35
:1058C000002B3FD0204698473CE0A36C002BE7D14B
:1058D000EBE7E36BA3B12046984711E01A6812F496
:1058E000807F09D11A6822F010021A60012384F81F
:1058F0003530002384F83430E36B0BB120469847F1
:10590000636DFBB1636D13F0010F17D0052384F8AD
:1059100035302268136823F001031360019B0133C3
:105920000193AB4204D823681B6813F0010FF5D133
:10593000012384F83530002384F83430E36C0BB154
:105940002046984703B0F0BD64000020B5814E1B8F
:10595000002807DB00F01F02400901239340024AA0
:1059600042F82030704700BF00E100E0002808DB6B
:105970000901C9B200F1604000F5614080F80013F0
:10598000704700F00F000901C9B2014B195470476C
:1059900014ED00E000B500F00700C0F1070CBCF109
:1059A000040F28BF4FF0040C031D062B0FD9C31E94
:1059B0004FF0FF3E0EFA0CF021EA000199400EFA7A
:1059C00003FE22EA0E0241EA02005DF804FB002316
:1059D000EEE70000074AD36823F4E0631B041B0CC6
:1059E000000200F4E060034343F0BF6343F400337C
:1059F000D360704700ED00E010B50446054BD86851
:105A0000C0F30220FFF7C6FF01462046FFF7AEFFB6
:105A100010BD00BF00ED00E008B5FFF799FF08BD1D
:105A200008B50B4B1A6842F400721A601A6842F407
:105A300080621A601A6842F480721A600320FFF7CD
:105A4000C9FF0F20FEF700FFFEF7DCFE002008BDB7
:105A5000003C0240034A1168034B1B780B4413605F
:105A6000704700BF844E00205C000020014B186886
:105A7000704700BF844E002038B50446FFF7F6FF9C
:105A80000546B4F1FF3F02D0044B1B781C44FFF7DE
:105A9000EDFF401BA042FAD338BD00BF5C000020E0
:105AA000026802F10C0353E8003F23F0C0030C32FC
:105AB00042E800310029F3D1202380F841307047BB
:105AC000026802F10C0353E8003F23F490730C3298
:105AD00042E800310029F3D1026802F1140353E8CF
:105AE000003F23F00103143242E800310029F3D1D2
:105AF000036B012B05D0202380F842300023036381
:105B00007047026802F10C0353E8003F23F01003D2
